:100000000C9446000C946F000C946F000C946F00DD
:100010000C946F000C946F000C9434030C946F00DC
:100020000C946F000C946F000C946F000C945207AA
:100030000C946F000C946F000C94AC050C946F0042
:100040000C946F000C946F000C946F000C946F0074
:100050000C946F000C946F000C946F000C94740758
:100060000C946F000C946F005B06B206C606F70690
:10007000FE06DD0601075F085009500968086B0895
:100080006E087008720874082509860811241FBEBE
:10009000CFEFD8E0DEBFCDBF14BE0FB6F894A89561
:1000A00080916000886180936000109260000FBEB4
:1000B00011E0A0E0B1E0E8E6FAE102C005900D929F
:1000C000AA31B107D9F721E0AAE1B1E001C01D9240
:1000D000A43AB207E1F70E94020A0C94320D0C9484
:1000E0000000CF93DF93EC01888190E09093310181
:1000F00080933001873091052CF066E070E00E941B
:100100001F0A019790932F0180932E01E0912E01F9
:10011000F0912F01EE0FFF1FE050FF4F0190F08193
:10012000E02DEE0FFF1FE85EFE4F21E030E031834F
:100130002083898190E090932D0180932C0130934E
:10014000350120933401DF91CF9108958AE391E046
:10015000089581E090E090933301809332010895F7
:1001600080919F019091A0018130910521F490939D
:100170001B0180931A0108950E945B036091A20104
:100180008091A1010C945603CF92DF92EF92FF92DF
:10019000CF93DF93C12CD12C7601C0E0D0E00E9438
:1001A00064038F3F2FEF920749F0092E000CAA0B32
:1001B000BB0BC80ED91EEA1EFB1E2196CC3281E075
:1001C000D8076CF39E01DD0F440B550BC701B60138
:1001D0000E94330AC901DF91CF91FF90EF90DF9029
:1001E000CF900895009711F460E011C0813091051F
:1001F00011F40C94BC00029731F40E945B0360E0A0
:100200008091A30105C00E945B0360918F0180E093
:100210000C945603009719F40E94BC0034C081303E
:10022000910519F482E090E005C08230910529F42F
:1002300083E090E00E94F20026C09C012350310927
:1002400022303105C8F4049759F485E10E9428064C
:1002500080E090E00E94F2008CED95E00E944B035C
:1002600084E00E94280680E090E00E94F2008CED7D
:1002700095E00E944B0307C080E090E00E94F200EE
:1002800080E00E94280684E690E00C944B038730BF
:10029000910511F481E014C08830910511F485E0D6
:1002A0000FC08230910511F484E00AC083309105BB
:1002B00011F480E105C0049711F484E101C081E1EB
:1002C0000C942806CF93DF93EC010E94AE0320919B
:1002D0009F013091A0012130310549F490E066E0A2
:1002E00070E00E941F0A90932D0180932C012091B1
:1002F00028013091290180912C0190912D012C171A
:100300003D07DCF40E94470180910C0190910D01A2
:100310000E944B0380E00E94280680910C0190917E
:100320000D010E944B0380912801909129010196B3
:100330009093290180932801DACFDF91CF9108951E
:10034000CF93DF93E0919F01F091A001EE0FFF1F8B
:10035000E85EFE4F208131812130310509F04FC028
:10036000EC0180910C0190910D010E944B03CE0194
:100370000E94620180932C0190932D012091300105
:10038000309131012F5F3F4F309331012093300185
:10039000E0919F01F091A001EE0FFF1FE85EFE4F7C
:1003A000118210821092430120933A0180933B0105
:1003B0008AE391E00E946309909345018093440190
:1003C0008091320190913301019739F410923301F9
:1003D0001092320180E00E942806809130019091B5
:1003E0003101079761F485E00E94280688EE93E0CA
:1003F0000E944B0380E0DF91CF910C942806DF919F
:10040000CF91089580919F019091A001019749F0AB
:1004100080919F019091A001019729F582E090E0E1
:1004200024C080912A0190912B0105978CF785E1DA
:100430000E94280680910C0190910D010E944B03AF
:1004400080E00E94280680910C0190910D010E948D
:100450004B0380912A0190912B01019690932B01DF
:1004600080932A01DECF85E090E09093270180936E
:10047000260180912601909127010E94A001809180
:10048000340190913501019721F4109235011092B9
:1004900034010895089580E090E008950895DF9272
:1004A000EF92FF920F931F93CF93DF93F89414B8BA
:1004B00017B81AB815B818B81BB8529A5A9A14BC7B
:1004C00085E085BD8FEF87BD82E080936E0010923E
:1004D0008000109281002FE83BE030938900209348
:1004E000880080936F005398239891EA9093B0000E
:1004F0008093B1001092B4001092B3008BE080BFE3
:1005000083E080937F0086E080937C0083E8809383
:100510007A0080917A00806480937A0080917A00DA
:1005200086FDFCCF10927C0083EA80937A0081E004
:1005300080937B0081E090E00E94090D8F3F11F0D5
:100540008093660010926D01C1E0C0934601C09394
:100550008A011092640110929E0180E990E00E944D
:10056000090D8093630180916301887311F0C0933A
:10057000630110928E0110928D018FEF90E09093A5
:100580008C0180938B011092690110926A01109284
:100590006B0110926C0181E08093390182E49FE04D
:1005A00090939D0180939C0180EB90E00E94090D47
:1005B000C82F81EB90E00E94090D2C2F30E0382BE2
:1005C0003093A00120939F0185E090E00E94090DE7
:1005D0008093A30189E090E00E94090D80938F0130
:1005E0008CE090E00E94090D8093A10184E190E0ED
:1005F0000E94090D8093A2010EE611E057E4E52E5A
:1006000051E0F52EC0E2D0E0CE010E94090DD82EB7
:10061000CE0101960E94090D2D2D30E0322F2227A8
:10062000282BF801219331938F01CE01C0960E94AF
:10063000090DD82ECE01C1960E94090D2D2D30E056
:10064000322F2227282BF701219331937F01229605
:10065000CC33D105C9F67894DF91CF911F910F91DA
:10066000FF90EF90DF9008951F920F920FB60F92B8
:1006700011248F930FB6F894A8958091600088613B
:1006800080936000109260000FBE8F910F900FBE9C
:100690000F901F901895009741F0EFECF7E031971D
:1006A000F1F700C000000197F6CF08958093B300E2
:1006B0006093B40008958FEF8093B3008093B400EB
:1006C0008FE090E00C944B0380916D0181111EC06E
:1006D000F89487E080937C0083E880937A0080918F
:1006E0007A00806480937A0080917A0086FDFCCF46
:1006F000809178009091790010927C0023EA2093F9
:100700007A0021E020937B00789408958FEF9FEF8B
:10071000089580916D0181111EC0F89488EC80933A
:100720007C0087E880937A0080917A0080648093CF
:100730007A0080917A0086FDFCCF809178009091BC
:10074000790010927C0023EA20937A0021E0209324
:100750007B00789408958FEF9FEF0895CF93DF93F8
:1007600020E030E080E0E3EAF1E0C6E0D3E8A1E099
:10077000B0E090E0F894C0937C00D0937A00409170
:100780007A00406440937A0040917A0046FDFCCFA5
:100790004091780050917900417050917A005064F6
:1007A00050937A0050917A0056FDFCCF609178000A
:1007B0007091790010927C00E0937A00F0937B00B6
:1007C00078949F5F6170461751F0442359F0AD0152
:1007D000022E01C0440F0A94EAF7842B03C090381C
:1007E00049F6F3CF2F5F3F4F2830310509F0C1CFD5
:1007F000DF91CF91089580910E0198E0899F90013B
:10080000112428279091360181E0890F80933601C9
:10081000822F829586958770282796959695822FA8
:10082000892780930E01089580930E010895809189
:100830006D01811116C0F89486E080937C0083E8F6
:1008400080937A0080917A00806480937A0080910E
:100850007A0086FDFCCF80917800909179007894A1
:1008600008958FEF9FEF08952F923F924F925F92DE
:100870006F927F928F929F92AF92BF92CF92DF92B0
:10088000EF92FF920F931F93CF93DF931C01FC0114
:10089000C281D381C438F3E0DF070CF07EC08091C1
:1008A0004701909148018C179D0708F46FC0E9E457
:1008B000F1E011E0819191918C179D0720F01F5F6D
:1008C0001E30C1F71DE0812F90E0FC01EE0FFF1FED
:1008D000E95BFE4FE080F180880F991FFC01EB5B24
:1008E000FE4F80819181B701681B790B80E090E019
:1008F0000E94B20B9B01AC010E949E0A4B015C015D
:10090000BE010D2E000C880B990B0E94B40B2B011D
:100910003C01B70180E090E00E94B20B6B017C01CA
:10092000612F70E080E090E00E94B20B20E030E0A8
:1009300040E05FE30E94400C20E030E0A9010E940B
:100940009E0AA50194010E94400C9B01AC01C701C5
:10095000B6010E949D0A9B01AC01C301B2010E9435
:100960009D0A20E030E040E251E40E94400C0E94E9
:100970007C0B7B01C501B4010E947C0BAB01BC0167
:10098000C701BA010E941F0A162F01C010E0CD3B1B
:1009900082E0D8070CF4CAC001C01FEFF101C0808B
:1009A000D18080916E0190916F018C159D0588F02A
:1009B000E0E7F1E081E090E0382EE190F190EC1476
:1009C000FD0408F458C001968E309105A9F70AE598
:1009D00001C000E01F3F09F44BC0BE01DD0F880BD2
:1009E000990B0E94B40B6B017C01612F70E080E0D9
:1009F00090E00E94B20B4B015C01A701960160E000
:100A000070E081E694E40E949D0A9B01AC01C5015F
:100A1000B4010E94400C4B015C01602F70E080E04B
:100A200090E00E94B20B2B013C0120E030E04FE24D
:100A300054E4C701B6010E949D0A9B01AC01C301A9
:100A4000B2010E94400C9B01AC01C501B4010E949F
:100A50009E0A20E030E048E453E40E940A0B20E0C4
:100A600030E044E052E40E949E0A0E94830B60C082
:100A700061E2600F5DC0880F991FFC01E459FE4FD1
:100A800080819181B701681B790B80E090E00E9422
:100A9000B20B9B01AC010E949E0A4B015C01B601A6
:100AA000DD0C880B990B0E94B40B2B013C01B701A4
:100AB00080E090E00E94B20B6B017C01632D70E03E
:100AC00080E090E00E94B20B20E030E040E05FE385
:100AD0000E94400C20E030E0A9010E949E0AA5017E
:100AE00094010E94400C9B01AC01C701B6010E9419
:100AF0009D0A9B01AC01C301B2010E949D0A20E046
:100B000030E040E251E40E94400C0E947C0B7B01EB
:100B1000C501B4010E947C0BAB01BC01C701BA0145
:100B20000E941F0A062F6F3F09F054CF61E2610F48
:100B3000862FDF91CF911F910F91FF90EF90DF9063
:100B4000CF90BF90AF909F908F907F906F905F906D
:100B50004F903F902F9008951F920F920FB60F92D3
:100B600011242F933F934F935F936F937F938F93B2
:100B70009F93AF93BF93EF93FF9320918D0130919B
:100B80008E0180918B0190918C01820F931F909325
:100B90008E0180938D018FEF90E090938C01809374
:100BA0008B018FEF87BD8091690190916A01A091BF
:100BB0006B01B0916C010196A11DB11D809369017B
:100BC00090936A01A0936B01B0936C0180916D01C9
:100BD00081112DC080919C0190919D0120918D01EA
:100BE00030918E018217930710F58091390184307E
:100BF000F1F4E0911101F091120109950097B9F01B
:100C00000E947F09882351F0E0910F01F0911001BB
:100C1000099510928E0110928D0109C00E94F90C65
:100C20009C01332730938C0120938B0187BDFF916A
:100C3000EF91BF91AF919F918F917F916F915F9154
:100C40004F913F912F910F900FBE0F901F901895CD
:100C500080FF02C0559A01C0559881FF02C0549A86
:100C600001C0549882FF02C03B9A01C03B9883FFA9
:100C700002C03A9A01C03A9884FF02C03D9A01C06E
:100C80003D9885FF02C03C9A08953C9808958C01D8
:100C90007B01D0E0CFEF84E0D82E98E1C92E29E285
:100CA000B22EE0913901F0E0E730F105D0F7EC5CCD
:100CB000FF4F0C94520AF89480B7877F80BF8091D1
:100CC0007A008F7780937A0014B817B81AB815B8DD
:100CD00018B81BB80FB6F894A895C09260000FBE64
:100CE000B09260008091600080648093600083B760
:100CF000817F846083BFF89483B7816083BF7894D9
:100D0000889583B78E7F83BF789410926D01529A35
:100D10005A9A80917A00806880937A0087E592E001
:100D20000197F1F700C0000080B7886180BF8FE3B2
:100D30000E942806EFE1FEE43197F1F700C00000C1
:100D400080916D01882309F450C083E00E94280639
:100D5000FFEF20E782E0F15020408040E1F700C043
:100D6000000043C08CE00E942806EFECF7E03197CA
:100D7000F1F700C0000080E00E942806FFEF21EE9E
:100D800084E0F15020408040E1F72CC00E9417041D
:100D90008B3AE2E09E0724F08CE00E94280681CF87
:100DA0008938F2E09F0714F080E3F7CF873692404E
:100DB00014F08FE0F2CF83E0F0CF489916C081E0C5
:100DC0000E9428068FEC97E00197F1F700C0000021
:100DD00080E00E9428069FEFE1EEF4E09150E040B1
:100DE000F040E1F700C000005CCF80E0D6CFD11129
:100DF00002C0F8010995D0923901D1E0F7010995B7
:100E000050CF80913701811107C01092B30010922A
:100E1000B4001092380145CF90913701809138018C
:100E2000981709F43ECF8091370180933801809163
:100E30003701813089F4C093B3001092B4008FE27F
:100E400095E70197F1F700C000008091A30180931E
:100E5000B3001092B40025CF809137011092B300F7
:100E6000C093B400823059F4EFE2F5E73197F1F71F
:100E700000C0000080918F011092B30010C0C09399
:100E8000B300C093B4008FE295E70197F1F700C07B
:100E900000008091A2019091A1019093B3008093F2
:100EA000B400FFCE1F920F920FB60F9211248F93B2
:100EB0009F9310928100109285001092840081E02F
:100EC0008093460180938A0110926D0110927C00FC
:100ED00093EA90937A0080937B009F918F910F907B
:100EE0000FBE0F901F9018951F920F920FB60F9282
:100EF00011240F931F932F933F934F935F936F93FF
:100F00007F938F939F93AF93BF93EF93FF93209122
:100F100084003091850041E040936D01809146014D
:100F2000882321F110928500109284004093810063
:100F300010929E011092460180918A01882309F443
:100F4000AFC180917A0086FDFCCF809178009091AE
:100F50007900909368018093670181E080937C0021
:100F600093EA90937A0080937B009AC1C9018758D5
:100F7000910984379940A0F0109281001092850069
:100F8000109284004093460140938A0110926D01B3
:100F900010927C0083EA80937A0040937B0080C1AA
:100FA00026583109A4EFB0E00E94580A8C0122278C
:100FB0003327083060F481E090E001C0880F0A9583
:100FC000EAF790919E01892B80939E0169C140931D
:100FD000460180918A01882341F180917A0086FD43
:100FE000FCCF809178009091790090936601809376
:100FF000650110927C0083EA80937A0081E08093FF
:101000007B0090919E01992359F0109281001092DB
:1010100085001092840080938A0110926D0140C176
:1010200010928A01109264013BC180916401E82F03
:10103000F0E0E057FE4F90919E0190838F5F809388
:1010400064018C3009F02CC110928100109285004F
:101050001092840040938A0110926D0100919A01D0
:1010600010919B0180E991E00E946309081719071C
:1010700009F016C1E0919901E7FD0AC0E091130162
:10108000F091140165E671E080E991E0099508C1ED
:1010900088E78E0F833030F0539823981092B40075
:1010A0001092B3008E2F90E0FC01E058F109EB3074
:1010B000F10508F0F5C0E55CFF4F0C94520A8091F1
:1010C0006E008D7F80936E0016BCE0E0F0E702C0FA
:1010D000E0E0F0E0099510923901E2C081E0B2C091
:1010E00085E0B0C082E0AEC080913901833009F460
:1010F000D7C080913901843009F4D2C0539A239A21
:101100001092B4001092B30083E09CC080919001D3
:10111000823009F44BC080F48823A9F0813009F0B3
:1011200082C080919101909192019093A00180934F
:101130009F011092370177C0833009F449C0843091
:1011400009F458C070C080913901863009F06BC035
:1011500060919F0180EB90E00E94110D6091A001D1
:1011600081EB90E00E94110D6091A30185E090E079
:101170000E94110D60918F0189E090E00E94110D95
:101180006091A1018CE090E00E94110D6091A2019C
:1011900084E190E00E94110D539823981092B400BE
:1011A0001092B30081E0809339013DC090913701E6
:1011B00080919301913021F49091A301891799F1C5
:1011C0001092380191E0909337018093A3012BC0D6
:1011D0009091370180919401923021F490918F0188
:1011E000891709F11092380192E0909337018093AA
:1011F0008F0119C02091370180919601909195013E
:10120000233041F42091A201821304C02091A10156
:10121000921749F01092380123E020933701909300
:10122000A1018093A201809190018823C9F180914E
:1012300039018630A9F1539A239A1092B400109282
:10124000B30086E0809339012BC08091390186304C
:1012500081F0539A239A1092B4001092B30080E068
:101260000E942806109237011092380186E0809380
:10127000390181E090E00090900102C0880F991F31
:101280000A94E2F720919F013091A00182239323D9
:10129000892B21F081E08093370102C01092370141
:1012A000FF91EF91BF91AF919F918F917F916F913E
:1012B0005F914F913F912F911F910F910F900FBE12
:1012C0000F901F901895FC019C01265F3F4F8FEFF8
:1012D0009FEF41918427082E8295807F8025092EDB
:1012E000982F82958F700826869598278927880FD2
:1012F000880F880F8025E217F30759F708950FB676
:10130000F894A4B1209163012A2B24B921E03091F3
:101310006301203029F0000025B1232B25B904C03A
:1013200000000000000000C0000000000000309538
:1013300025B1232325B92EEA2A95F1F72BEE30B7F4
:1013400035FF0AC0A4B930916301309525B123233C
:1013500025B90FBE80E0089500002A9581F721E0AD
:1013600030916301203029F0000025B1232B25B9ED
:1013700004C000000000000000C0000000000000E9
:10138000309525B1232325B9000024E52A95F1F7EE
:10139000FC018CE0619170E0660F771F6160726004
:1013A0009AE041E050E09A0126233723232B309125
:1013B0006301203029F0000025B1232B25B904C09A
:1013C00000000000000000C0000000000000309598
:1013D00025B1232325B9000021E52A95F1F7440F13
:1013E000551F9A9501F78A95A9F620B7206120BF6D
:1013F000A4B930916301309525B1232325B90FBEDF
:1014000081E008950E944F0281E790E090931401DB
:101410008093130186EA90E090931201809311016A
:1014200089EA90E09093100180930F0162E072E0EE
:1014300080EB90E00E94470680E090E0089597FBE3
:10144000072E16F4009407D077FD09D00E94670A92
:1014500007FC05D03EF4909581959F4F08957095B7
:1014600061957F4F0895052E97FB1EF400940E940E
:101470004A0A57FD07D00E947B0A07FC03D04EF4AE
:101480000C944A0A50954095309521953F4F4F4F07
:101490005F4F089590958095709561957F4F8F4F20
:1014A0009F4F0895EE0FFF1F0590F491E02D0994D2
:1014B000A29FB001B39FC001A39F700D811D112495
:1014C000911DB29F700D811D1124911D0895AA1BBD
:1014D000BB1B51E107C0AA1FBB1FA617B70710F01F
:1014E000A61BB70B881F991F5A95A9F78095909551
:1014F000BC01CD010895A1E21A2EAA1BBB1BFD0160
:101500000DC0AA1FBB1FEE1FFF1FA217B307E407E2
:10151000F50720F0A21BB30BE40BF50B661F771F3A
:10152000881F991F1A9469F760957095809590951A
:101530009B01AC01BD01CF0108955058BB27AA27DC
:101540000E94B50A0C94060C0E94F80B38F00E9419
:10155000FF0B20F039F49F3F19F426F40C94F50B9F
:101560000EF4E095E7FB0C94EF0BE92F0E94170CAB
:1015700058F3BA17620773078407950720F079F4C8
:10158000A6F50C94390C0EF4E0950B2EBA2FA02D75
:101590000B01B90190010C01CA01A0011124FF2720
:1015A000591B99F0593F50F4503E68F11A16F0401B
:1015B000A22F232F342F4427585FF3CF469537951A
:1015C0002795A795F0405395C9F77EF41F16BA0BDF
:1015D000620B730B840BBAF09150A1F0FF0FBB1F8D
:1015E000661F771F881FC2F70EC0BA0F621F731FD6
:1015F000841F48F4879577956795B795F7959E3F33
:1016000008F0B0CF9395880F08F09927EE0F9795C3
:10161000879508950E941E0B0C94060C0E94FF0BE8
:1016200058F00E94F80B40F029F45F3F29F00C9429
:10163000EF0B51110C943A0C0C94F50B0E94170C03
:1016400068F39923B1F3552391F3951B550BBB27F1
:10165000AA2762177307840738F09F5F5F4F220F36
:10166000331F441FAA1FA9F335D00E2E3AF0E0E82D
:1016700032D091505040E695001CCAF72BD0FE2F77
:1016800029D0660F771F881FBB1F2617370748070B
:10169000AB07B0E809F0BB0B802DBF01FF279358C3
:1016A0005F4F3AF09E3F510578F00C94EF0B0C948D
:1016B0003A0C5F3FE4F3983ED4F3869577956795AF
:1016C000B795F7959F5FC9F7880F911D96958795F8
:1016D00097F90895E1E0660F771F881FBB1F621717
:1016E00073078407BA0720F0621B730B840BBA0BD5
:1016F000EE1F88F7E09508950E94830B6894B1115E
:101700000C943A0C08950E941F0C88F09F5798F093
:10171000B92F9927B751B0F0E1F0660F771F881FF6
:10172000991F1AF0BA95C9F714C0B13091F00E9410
:10173000390CB1E008950C94390C672F782F882765
:10174000B85F39F0B93FCCF3869577956795B39537
:10175000D9F73EF490958095709561957F4F8F4FA6
:101760009F4F0895E89409C097FB3EF490958095AB
:10177000709561957F4F8F4F9F4F9923A9F0F92F57
:1017800096E9BB279395F695879577956795B795D5
:10179000F111F8CFFAF4BB0F11F460FF1BC06F5FBB
:1017A0007F4F8F4F9F4F16C0882311F096E911C0CD
:1017B000772321F09EE8872F762F05C0662371F0EE
:1017C00096E8862F70E060E02AF09A95660F771F02
:1017D000881FDAF7880F9695879597F9089597F9F6
:1017E0009F6780E870E060E008959FEF80EC0895C7
:1017F00000240A94161617061806090608950024F0
:101800000A9412161306140605060895092E039469
:10181000000C11F4882352F0BB0F40F4BF2B11F4DD
:1018200060FF04C06F5F7F4F8F4F9F4F089557FD3C
:101830009058440F551F59F05F3F71F04795880F3E
:1018400097FB991F61F09F3F79F0879508951216D5
:1018500013061406551FF2CF4695F1DF08C0161681
:1018600017061806991FF1CF869571056105089432
:101870000895E894BB2766277727CB0197F9089549
:101880000E94530C0C94060C0E94F80B38F00E9436
:10189000FF0B20F0952311F00C94EF0B0C94F50B3B
:1018A00011240C943A0C0E94170C70F3959FC1F30D
:1018B000950F50E0551F629FF001729FBB27F00DFE
:1018C000B11D639FAA27F00DB11DAA1F649F662753
:1018D000B00DA11D661F829F2227B00DA11D621FA2
:1018E000739FB00DA11D621F839FA00D611D221F5C
:1018F000749F3327A00D611D231F849F600D211D40
:10190000822F762F6A2F11249F5750409AF0F1F0C2
:1019100088234AF0EE0FFF1FBB1F661F771F881F2B
:1019200091505040A9F79E3F510580F00C94EF0B69
:101930000C943A0C5F3FE4F3983ED4F38695779588
:101940006795B795F795E7959F5FC1F7FE2B880FD1
:10195000911D9695879597F908958F929F92AF92D2
:10196000BF92CF92DF92EF92FF92CF93DF93EC0181
:10197000688179818A819B81611571058105910555
:1019800021F464E279ED8BE597E02DE133EF41E05E
:1019900050E00E94330A49015A019B01AC01A7EAB9
:1019A000B1E40E941F0D6B017C01ACEEB4EFA50108
:1019B00094010E942D0DDC01CB018C0D9D1DAE1DEF
:1019C000BF1DB7FF03C00197A109B0488883998361
:1019D000AA83BB839F77DF91CF91FF90EF90DF9039
:1019E000CF90BF90AF909F908F9008950E94AD0CC4
:1019F000089585E191E00E94AD0C0895A0E0B0E06B
:101A00008093150190931601A0931701B0931801CC
:101A10000895F999FECF92BD81BDF89A992780B5B6
:101A20000895262FF999FECF1FBA92BD81BD20BD22
:101A30000FB6F894FA9AF99A0FBE019608950E948B
:101A4000580AA59F900DB49F900DA49F800D911DE5
:101A500011240895B7FF0C941F0D0E941F0D821BC7
:081A6000930B0895F894FFCFE9
:101A68000100040006000200050003002C01AA4E34
:0A1A7800024B024A020100000000C8
:00000001FF
